:100000000C945B000C9481000C9481000C94810092
:100010000C9481000C9481000C9481000C9481005C
:100020000C9481000C9481000C9481000C9481004C
:100030000C9481000C9481000C9481000C9481003C
:100040000C94BD010C9481000C940E040C9481005E
:100050000C9481000C9481000C9481000C9481001C
:100060000C9481000C948100BC0100000007000288
:10007000010000030406000000000000000001026F
:100080000408102040800102040810200102040826
:100090001020040404040404040402020202020204
:1000A0000303030303030000232629000025282B54
:1000B000000024272A0011241FBECFEFD4E0DEBFAA
:1000C000CDBF11E0A0E0B1E0E4E1FBE002C00590AB
:1000D0000D92A230B107D9F711E0A2E0B1E001C062
:1000E0001D92AD38B107E1F710E0CAE6D0E004C0D8
:1000F0002297FE010E948605C836D107C9F70C94E5
:10010000EC000C94000040E052EC61E070E084E010
:1001100091E00E94F90061E08DE00E94490368E5EA
:1001200072E080E090E00E94FA0160E08DE00E94C1
:10013000490360E08DE00E94E20208950F931F934F
:1001400004E011E0BC01C8010E94A80120E030E0F9
:1001500040E250E060E070E0C8010E948D011F9114
:100160000F910895CF93DF9384E091E00E94FE0009
:10017000882379F184E091E00E94020182379105A1
:1001800041F5C0E0D0E08C2F0E94730290930301F0
:10019000809302010E949E002196C630D10599F7F6
:1001A000C2E0D0E08C2F0E94000390930301809363
:1001B00002010E949E002196CE30D10599F784E07D
:1001C00091E00E94140165E070E080E090E00E9400
:1001D000FA01DF91CF910895CFEFD4E0DEBFCDBF1C
:1001E0000E9429020E9483000E94B200FDCF089560
:1001F0000895CB01BA010E94940308950E94D5038B
:10020000992708950E94E60308950E940504089521
:10021000862F0E944C040895CB010E945304089538
:10022000862F0E944C0408950F931F938C016DE05C
:100230000E9408016AE0C8010E9408011F910F9105
:1002400008950F931F938C010E940801C8010E941A
:1002500014011F910F9108950F931F938C010E9419
:100260000C01C8010E9414011F910F9108950F9372
:100270001F938C010E941001C8010E9414011F915C
:100280000F910895CB01BA013327442755270E94C7
:10029000600408952AE00E94420108950F931F937D
:1002A0008C010E944A01C8010E9414011F910F9104
:1002B0000895AB01662777270E944A010895EF92BF
:1002C000FF920F931F93CF93DF93EC017A018B0181
:1002D00077FF0BC06DE20E94080110950095F09425
:1002E000E094E11CF11C011D111D2AE0B801A701D9
:1002F000CE010E944201DF91CF911F910F91FF909B
:10030000EF9008950F931F938C010E945F01C80125
:100310000E9414011F910F9108952115310521F4B8
:10032000642F0E94080108952A30310519F40E94B3
:100330005F0108950E94420108950F931F938C015D
:100340000E948D01C8010E9414011F910F91089510
:10035000AB01662757FD6095762F0E945F010895D7
:100360000F931F938C010E94A801C8010E941401E1
:100370001F910F910895089508951F920F920FB63F
:100380000F9211248F939F93AF93BF938091090194
:1003900090910A01A0910B01B0910C010196A11D51
:1003A000B11D8093090190930A01A0930B01B093B2
:1003B0000C01BF91AF919F918F910F900FBE0F9045
:1003C0001F9018956091090170910A0180910B01AD
:1003D00090910C0127E0660F771F881F991F2A95BF
:1003E000D1F72DE730E040E050E00E943305CA012C
:1003F000B9010895AF92BF92CF92DF92EF92FF9230
:100400000F931F935B016C010E94E2017B018C0141
:100410000E94E2016E197F09800B910B6A157B0522
:100420008C059D05A8F31F910F91FF90EF90DF9031
:10043000CF90BF90AF900895019751F0880F991F0A
:10044000880F991F02972FB7F8940197F1F72FBFE4
:10045000089578941092090110920A0110920B01EC
:1004600010920C0184B5826084BD84B5816084BD26
:1004700085B5826085BD85B5816085BDEEE6F0E01D
:10048000808181608083E1E8F0E080818260808308
:10049000808181608083E0E8F0E0808181608083FA
:1004A000E1EBF0E0808184608083E0EBF0E080812C
:1004B00081608083ECE7F0E080818F7780838081AA
:1004C00080648083EAE7F0E08081846080838081BB
:1004D0008260808380818160808380818068808366
:1004E0001092C100089590917C00907F8F70982B9E
:1004F00090937C0080917A00806480937A00809150
:100500007A0086FDFCCF20917800809179009927B0
:10051000982F88273327822B932B08951F93CF93EF
:10052000DF93182FEB0161E00E94E202E12FFF2729
:10053000E659FF4F8491833051F4809180008068A8
:1005400080938000D0938900C093880037C08430A6
:1005500051F480918000806280938000D0938B0062
:10056000C0938A002BC0813029F484B5806884BD93
:10057000C7BD24C0823029F484B5806284BDC8BD63
:100580001DC0863041F48091B00080688093B00037
:10059000C093B30013C0873041F48091B0008062F3
:1005A0008093B000C093B40009C0C038D10514F4E2
:1005B00060E001C061E0812F0E944903DF91CF918B
:1005C0001F910895282F3327C90182589F4FFC019E
:1005D00094912E563F4FF9018491882381F0E82FA2
:1005E000FF27E055FF4FE491FF27662329F4808120
:1005F00090958923808308958081892B8083089535
:10060000482F5527CA0186599F4FFC012491CA01E2
:1006100082589F4FFC0194914E565F4FFA013491DE
:100620003323A1F1222331F1233021F48091800082
:100630008F7705C0243031F4809180008F7D8093C6
:10064000800018C0213019F484B58F7704C022309F
:1006500021F484B58F7D84BD0DC0263021F48091B6
:10066000B0008F7705C0273029F48091B0008F7DCE
:100670008093B000E32FFF27EA55FF4FE491FF2757
:100680008081892319F081E090E0089580E090E076
:100690000895482F5527CA0186599F4FFC01249180
:1006A000CA0182589F4FFC0194914E565F4FFA0148
:1006B00034913323C1F1222331F1233021F480918D
:1006C00080008F7705C0243031F4809180008F7DC9
:1006D0008093800018C0213019F484B58F7704C04E
:1006E000223021F484B58F7D84BD0DC0263021F4E5
:1006F0008091B0008F7705C0273029F48091B00039
:100700008F7D8093B000E32FFF27E555FF4FE491E5
:10071000FF27662329F4808190958923808308959B
:100720008081892B80830895EF92FF920F931F930E
:100730007B018C0122E030E040E050E00E94550552
:10074000205C3D4B404F5F4FCA01B901A8019701A2
:100750000E9455052150304040405040BB2757FD76
:10076000BA95A52F942F832F2F5F3F4F4F4F5F4F89
:100770008093C50021502093C400E1ECF0E080811B
:1007800080618083808188608083808180688083AD
:100790001F910F91FF90EF900895982F8091C000C6
:1007A00085FFFCCF9093C60008958091070190913A
:1007B00008012091050130910601821B930B80589E
:1007C0009F4F60E870E00E94200508954091050168
:1007D00050910601809107019091080184179507B7
:1007E00019F48FEF9FEF0895FA01E35FFE4F208128
:1007F000CA01019660E870E00E942005909306010E
:1008000080930501822F9927089580910501909189
:100810000601909308018093070108951F920F929B
:100820000FB60F9211242F933F934F935F936F93C3
:100830007F938F939F93AF93BF93EF93FF934091D9
:10084000C600E0910701F0910801CF01019660E830
:1008500070E00E9420059C018091050190910601A5
:100860002817390739F0E35FFE4F408330930801C2
:1008700020930701FF91EF91BF91AF919F918F91CD
:100880007F916F915F914F913F912F910F900FBE8C
:100890000F901F90189508950E94CD0308958AE047
:1008A0000E944C040895CF93DF93EC0103C021967E
:1008B0000E944C0488818823D1F7DF91CF9108955D
:1008C0002F923F924F925F926F927F928F929F9260
:1008D000AF92BF92CF92DF92EF92FF920F931F934E
:1008E000CF93DF93CDB7DEB7A0970FB6F894DEBFF6
:1008F0000FBECDBF6B017C0119012A016115710585
:100900008105910521F480E30E944C044BC06624CC
:10091000772443015E010894A11CB11C8501060DDA
:10092000171DC701B601A20191010E943305F8010C
:1009300060830894611C711C811C911CC701B60165
:10094000A20191010E94330569017A012115310547
:100950004105510519F773010894E108F108EA0C03
:10096000FB1CAA24BB24650111C0F70180818A30D9
:1009700010F4805D01C0895C0E944C040894A108B9
:10098000B108C108D1080894E108F108882799271F
:10099000DC0186199709A809B909A816B906CA067B
:1009A000DB0619F7A0960FB6F894DEBF0FBECDBFD9
:1009B000DF91CF911F910F91FF90EF90DF90CF903B
:1009C000BF90AF909F908F907F906F905F904F906F
:1009D0003F902F900895EF92FF920F931F937B010A
:1009E0008C0197FF0BC08DE20E944C04109500957E
:1009F000F094E094E11CF11C011D111D2AE030E08F
:100A000040E050E0C801B7010E9460041F910F91BF
:100A1000FF90EF90089520E130E040E050E00E9428
:100A20006004089528E030E040E050E00E94600457
:100A3000089522E030E040E050E00E946004089514
:100A400097FB092E07260AD077FD04D049D006D09F
:100A500000201AF4709561957F4F0895F6F79095F0
:100A600081959F4F0895A1E21A2EAA1BBB1BFD0181
:100A70000DC0AA1FBB1FEE1FFF1FA217B307E4077D
:100A8000F50720F0A21BB30BE40BF50B661F771FD5
:100A9000881F991F1A9469F76095709580959095B5
:100AA0009B01AC01BD01CF01089597FB092E0526DE
:100AB0000ED057FD04D0D7DF0AD0001C38F4509573
:100AC0004095309521953F4F4F4F5F4F0895F6F772
:100AD00090958095709561957F4F8F4F9F4F0895AA
:100AE000AA1BBB1B51E107C0AA1FBB1FA617B70754
:100AF00010F0A61BB70B881F991F5A95A9F7809570
:100B00009095BC01CD010895EE0FFF1F0590F49163
:040B1000E02D099437
:020B14000D00D2
:00000001FF
